:020000040800F2
:1000000080070020FD000008591E0008511E00084E
:10001000551E000885080008C11F000800000000E8
:10002000000000000000000000000000611E000849
:1000300089080008000000005D1E0008651E000819
:100040001701000817010008170100081701000830
:100050001701000817010008170100081701000820
:100060001701000817010008170100081701000810
:100070001701000817010008170100081701000800
:100080001701000817010008170100080000000010
:100090000000000000000000000000001701000840
:1000A0000000000000000000000000000000000050
:1000B000170100088D1E000817010008170100082D
:1000C00017010008170100081701000817010008B0
:1000D00017010008CD1E0008651F00081701000861
:1000E0008D08000817010008DFF80CD000F080FB35
:1000F00000480047252A000880070020064880475E
:1001000006480047FEE7FEE7FEE7FEE7FEE7FEE7FC
:10011000FEE7FEE7FEE7FEE7691E0008E9000008CB
:1001200040EA01039B0703D009E008C9121F08C079
:10013000042AFAD203E011F8013B00F8013B521EF9
:10014000F9D27047D2B201E000F8012B491EFBD270
:1001500070470022F6E710B513460A4604461946D2
:10016000FFF7F0FF204610BD30B505462A460B4686
:1001700012F8010B13F8014B08B1A042F8D01CB1E2
:10018000002802D06D1CF1E7284630BDCAB2401EDF
:1001900010F8011F8A4202D00029F9D100207047CF
:1001A000421C10F8011B0029FBD1801A70472DE971
:1001B000FE4F81EA030404F0004421F00041009462
:1001C0004FF0000B23F0004350EA01045ED052EAE6
:1001D00003045BD0C3F30A54C1F30A552C44A4F2C0
:1001E000F3340194A0FB0254C1F3130141F48011D4
:1001F000C3F3130343F4801301FB024400FB034EDB
:10020000840A970A44EA815447EA8357A4FB0768A3
:1002100002958D0A05FB07854FEA932C04FB0C54CD
:100220002705029D4FEA065847EA1637B5EB080541
:100230006EEB070C870E920E47EA811742EA831293
:10024000A7FB0201B6EB0B0164EB00042B0D43EAA4
:100250000C335E1844EB1C50DA465146E7FB0201B2
:10026000C5F313044FEA0B3343EA14534FEA043245
:10027000019C43EA0603A4F10C040294009CCDE91E
:1002800000B400F021F903B0BDE8F08F0020014672
:10029000F9E7002801DBC0F10040002901DBC1F1D2
:1002A0000041814201D8012070470020704700289A
:1002B00001DBC0F10040002901DBC1F100418142B6
:1002C00001D3012070470020704730B5041E71F142
:1002D000000404DB4FF00044404264EB0101141EB3
:1002E00073F1000405DB1C464FF00043524263EB00
:1002F0000403101A8B4101D2012030BD002030BD13
:1003000030B5041E71F1000404DB4FF0004440429C
:1003100064EB0101141E73F1000405DB1C464FF071
:100320000043524263EB0403101A8B4101D30120B6
:1003300030BD002030BD0EB540F2334102910021A6
:10034000CDE900110A460B4600F0BEF803B000BD2F
:1003500000F0004230F000400AD0C10D01F560719C
:10036000C0F3160042EA0151C2084007114370472A
:1003700000200146704701F0004330B421F00041F5
:1003800050EA010206D00A0DA2F56072C1F3130112
:10039000002A02DC30BC00207047440F44EAC1044C
:1003A000C100E01830BC00EBC25000F047B830B5D7
:1003B0000B46014600202022012409E021FA02F523
:1003C0009D4205D303FA02F5491B04FA02F52844BD
:1003D000151EA2F10102F1DC30BD2DE9F05F0546EA
:1003E000002092469B4688460646814640241BE0F4
:1003F000284641464746224600F021FA53465A46CF
:10040000C01A914110D311461846224600F008FA4E
:100410002D1A67EB01084F4622460120002100F00B
:10042000FFF917EB00094E41201EA4F10104DFDCA7
:10043000484631462A464346BDE8F09F0029A8BFFA
:100440007047401C490008BF20F00100704710B4FD
:10045000B0FA80FC00FA0CF050EA010404BF10BCB2
:10046000704749B1CCF1200421FA04F411FA0CF1DF
:1004700018BF012121430843A3EB0C01CB1D4FEA18
:1004800000614FEA102042BF002010BC704700EB13
:10049000C35010440029A4BF10BC7047401C490041
:1004A00008BF20F0010010BC704710B5141E73F196
:1004B000000408DA401C41F1000192185B411A4324
:1004C00001D120F0010010BD2DE9F04D92469B4670
:1004D00011B1B1FA81F202E0B0FA80F22032904616
:1004E00000F09EF904460F4640EA0A0041EA0B017B
:1004F00053465A46084313D0114653EA010019D017
:10050000C8F14002504600F09AF905460E465046A2
:100510005946424600F084F9084305D0012004E022
:1005200020463946BDE8F08D0020054346EAE076D6
:100530002C4337430A986305E40AA0EB0800002225
:10054000FD0A44EA47540A3002D500200146E9E793
:10055000010510196941DDE9084500196941BDE847
:10056000F04DA2E72DE9FE4F804681EA0300C00F5F
:100570000C46009021F0004123F00045B8EB02004A
:10058000A94105D24046214690461C460B460246EC
:1005900023F00040104347D0270DC7F30A00C3F3F0
:1005A0000A510290401A019040286BDAC3F31300FD
:1005B00040F4801B0098924620B10023D2EB030A3E
:1005C00063EB0B0B01985946C0F14002504600F016
:1005D00027F906460D4650465946019A00F03FF964
:1005E00010EB08006141002487EA115284EAE773A6
:1005F0001A4340D0009A62B3019A012A4FEA075287
:1006000015DC001B61EB02014FF0004202EA0752C9
:10061000CDE90042001C41F5801132462B46FFF720
:1006200053FF03B0BDE8F08F40462146F9E7001BB9
:1006300061EB0201001C41F5801300185B4120189A
:10064000A2F5001747EB030140EAD570B6196D41DA
:1006500011E06D084FEA360645EAC0754FEA0752C9
:10066000001B61EB0201001C41F5801149084FEAB3
:1006700030000019514132462B4603B0BDE8F04F1F
:10068000FFF713BF0098012240000023D0EB0202C5
:1006900063EBE073009821464FEAE074B8EB00008A
:1006A00061EB0401E9E783F000435BE781F000417F
:1006B00058E72DE9F04D81EA030404F0004B21F0E6
:1006C000004514464FF0000A23F0004150EA0502AD
:1006D00020D054EA01021DD0C5F30A570246C5F3E3
:1006E0001303C1F31300C1F30A5640F4801543F419
:1006F0008013A7EB0608101BD64608F2FD3873EBF3
:10070000050002D308F1010801E092185B41B8F13D
:10071000000F03DA00200146BDE8F08D00204FF401
:100720008011064684460EE0171B73EB050705D3C0
:10073000121B63EB050306434CEA010C49084FEA20
:10074000300092185B4150EA0107EDD152EA0300F4
:1007500012D082EA040083EA0501084305D0101B89
:10076000AB4106D20122002306E000224FF00043F5
:1007700002E06FF0010253101AEB06004CEB085137
:1007800010EB0A0041EB0B01BDE8F04DFFF78DBE09
:10079000C1F30A52C1F3130140F2FF3341F4801157
:1007A0009A4202DA00200146704740F233439A42EF
:1007B000A2F2334202DC524200F041B800F030B8FD
:1007C00030B5041E71F1000404DB4FF000444042D8
:1007D00064EB0101141E73F1000405DB1C464FF0AD
:1007E0000043524263EB0403994208BF904230BD7C
:1007F0001CB509480090094801900546009C06E098
:10080000E06840F0010394E8070098471034AC42D8
:10081000F6D3FFF76DFC00001857000838570008A2
:10082000202A04DB203A00FA02F1002070479140B0
:10083000C2F1200320FA03F3194390407047202AA5
:1008400004DB203A21FA02F00021704721FA02F37A
:10085000D040C2F120029140084319467047202A37
:1008600006DBCB17203A41FA02F043EAE07306E0D8
:1008700041FA02F3D040C2F12002914008431946E8
:1008800070470000FEE70000704700004FF4805002
:1008900000F020B8B0F5805F1AD180B500F034F9CF
:1008A0004FF4FA7001F0B2FB40F60040C4F20100D0
:1008B0004FF4805100F01CF90028BDE8804018BFBB
:1008C000704740F24820C2F20000018801310180E7
:1008D0007047000040F21441C4F201010A6802426C
:1008E00014BF08607047FFF7D5BF00002DE9F04F37
:1008F00082B00E68002E00F0F78041F20042C4F290
:100900000102042340F2004E904208BF03234FF639
:10091000FF7CC4F2010E009300240123C1F2100CED
:100920004FF0000A4FF000094AE041F20002C4F221
:100930000102009F904208BF022704F00C030F221F
:100940009A402BEA020207FA03F34FEA9A051A4388
:1009500046F825204E6840F20C45F202DEF80820E9
:1009600054BF22EA080242EA0802C4F20105CEF8A6
:1009700008202A68B30254BF22EA080242EA0802A9
:100980002A60B303DEF8042054BF22EA080242EAD8
:100990000802F303CEF80420DEF800204FF0010334
:1009A00054BF22EA080242EA0802CEF800200E688C
:1009B0000AF1010A36FA0AF204F1040400F0948004
:1009C00003FA0AFB16EA0B08F1D04E68664511DC03
:1009D000122E51D8DFE806F0340A494650505050E4
:1009E000505050505050505050424D00D1F80C9043
:1009F00042E000BF4FF6FF72C1F2210296420FDCC7
:100A00000022C1F2110296421AD00022C1F2120253
:100A1000964215D00022C1F22102964210D02BE05E
:100A20000022C1F2220296420AD00022C1F2310213
:100A3000964205D00022C1F2320296421CD100BF7C
:100A40008A6842B1012A14BFC0F814B0C0F810B0CF
:100A50004FF0080910E04FF004090DE0CA6802F1F8
:100A6000040909E04FF0000906E0CA6802F108092C
:100A700002E0CA6802F10C0902462646B8F5807FFA
:100A800024BF0432203E17680F25B54027EA05052C
:100A900009FA06F635431560CA79D2067FF587AFA5
:100AA00041F21803C4F202031A68AEF57E7642F0F2
:100AB00001021A601A6802F001020192019A2AF0FA
:100AC000030256F802B040F60002C4F2010290425E
:100AD00008D040F60042C4F2010290427FF425AFF4
:100AE00001272AE7002728E702B0BDE8F08F0000C1
:100AF0008068084018BF012070470000002A08BF26
:100B0000090401617047000040F27830C2F2000031
:100B10000068704740F2080040F27831C2F20000ED
:100B2000C2F2000100780A681044086070470000B3
:100B300080B542F20000C4F20200016841F01001E9
:100B40000160032000F070F80F2000F005F800F0BD
:100B50002BF8002080BD0000B0B540F20802C2F2C0
:100B6000000240F204011278C2F200014FF47A73DD
:100B70000968B3FBF2F20446B1FBF2F1084600F05B
:100B800001FB0F2C4FF001050CD858B94FF0FF3086
:100B900021460022002500F01BF840F20C00C2F2B2
:100BA000000004602846B0BD70470000002848BF20
:100BB000704700F01F01012202FA01F11C2202EA33
:100BC000D0004EF20012CEF20002815070470000B9
:100BD00010B54EF60C5CCEF2000CDCF80030C3F31E
:100BE000022E8EF00704042C28BF0424BEF1030358
:100BF0004FF0FF3E0EFA04F438BF0023A1439940A2
:100C00000EFA03F39A43114300F1604200F00F0320
:100C1000090102F56442043B6344002848BF03F124
:100C20000C02117010BD00004EF60C51CEF2000106
:100C30000A684FF6FF031A4060F30A2242F0806010
:100C400040F0FD7008607047002804BF0120704725
:100C50002DE9F04381B042F20008C4F202080446D4
:100C6000D8F800000D4600F0070088420CD2D8F8F2
:100C7000000020F007002843C8F80000D8F8000062
:100C800000F00700A8426BD1206841F204098107F7
:100C9000C4F2020917D5410705D5D9F8001041F46F
:100CA000E061C9F80010010705D5D9F8001041F43A
:100CB0006051C9F80010D9F80010A26821F0F001C5
:100CC0001143C9F80010C00741D1D8F8000000F066
:100CD0000700A8420CD9D8F8000020F007002843EC
:100CE000C8F80000D8F8000000F00700A84237D18B
:100CF0002068410707D5D9F80010E26821F4E061C7
:100D00001143C9F80010000708D5D9F8000021697F
:100D100020F4605040EAC100C9F80000D9F8002072
:100D200002F00C00082841F20020C0F27A0049D1FC
:100D300045F21263C2F38341C0F60003595CD2034B
:100D400034D440F60010C0F23D0048433AE06068F9
:100D500059F8041C022807D0012824D1890305D49E
:100D6000012001B0BDE8F0838901F9D5D9F8001060
:100D700021F003010843C9F80000FFF7C5FE06464D
:100D800041F28837D9F80000616800F00C00B0EB40
:100D9000810F9AD0FFF7B8FE801BB842F2D903202A
:100DA00001B0BDE8F0838907DAD5DFE7D9F8002084
:100DB00043F65063C2F34042C0F600039A5C4843D6
:100DC000B0FBF2F0D9F8001043F63862C1F303111A
:100DD000C0F60002515C40F2040220FA01F140F238
:100DE0000C00C2F200000068C2F200021160FFF7BE
:100DF000B3FE002001B0BDE8F083000040F2040023
:100E000041F20401C2F20000C4F202010068096864
:100E100043F64862C1F30221C0F60002515CC840AB
:100E20007047000040F2040041F20401C2F20000E9
:100E3000C4F202010068096843F64862C1F3C221A6
:100E4000C0F60002515CC84070470000002804BF93
:100E5000012070472DE9F04182B00446007841F24C
:100E60000006C007C4F2020647D0706800F00C000C
:100E7000042808D1306880033FD56068E8BB0120B2
:100E800002B0BDE8F081706800F00C00082802D1C3
:100E90007068C003EED4656830682DB1B5F5A02F39
:100EA00009D0B5F5803F0AD020F48030306030683A
:100EB00020F4802005E040F480203060306840F469
:100EC00080303060FFF720FE002D054612D000BFB5
:100ED0003068800311D4FFF717FE401B6428F7D950
:100EE00016E100BFFFF710FE401B64284FF003001F
:100EF00000F2D88030688003F4D42078800719D5B8
:100F0000706810F00C0F07D0706800F00C00082813
:100F100027D17068C00324D43068800703D52069C6
:100F2000012840F0A6803068616920F0F80040EAAE
:100F3000C1003060207800074ED5A06938B300208A
:100F4000C4F242200121C0F88014FFF7DDFD054600
:100F5000706A80072DD4FFF7D7FD401B0228F7D910
:100F6000D6E02069002840F20000C4F2422000F0E0
:100F7000A88001210160FFF7C7FD054630688007A2
:100F8000D1D4FFF7C1FD401B0228F7D9C0E00020F3
:100F9000C4F242200021C0F88014FFF7B5FD0546D9
:100FA000706A800718D5FFF7AFFD401B0228F7D9FC
:100FB000AEE040F20400C2F20000006844F6D351F3
:100FC000C1F26201A0FB0101480A019000BF019833
:100FD000411E00280191F9D12078400717D4E56916
:100FE0008DB1706800F00C00082846D1012D40D06A
:100FF0007068216A00F480328A423AD1616A00F452
:101000007010884235D1002002B0BDE8F081F0694F
:101010005FEAC00808D4F06940F08050F061F069E0
:1010200000F080500090009847F20007C4F20007DB
:101030003868C0050FD4386840F480703860FFF716
:1010400063FD05463868C00505D4FFF75DFD401B0C
:101050006428F7D95CE0E568306A1DB1052D41D000
:10106000012D43D020F001003062306A20F00400EE
:101070003EE0012002B0BDE8F0810027C4F2422723
:1010800000203866FFF740FD022D05460ED100BF57
:101090003068800153D5FFF737FD401B02284FF021
:1010A0000300F5D902B0BDE8F08100BF30688001CF
:1010B000A9D5FFF729FD401B02284FF00300F5D901
:1010C000F0E700210160FFF71FFD0546306880074B
:1010D0007FF530AFFFF718FD401B02284FF00300EB
:1010E000F4D9DFE740F004003062306A40F00100DC
:1010F0003062FFF709FD002D054641F2883712D016
:10110000306A800712D4FFF7FFFC401BB842F7D9C2
:10111000032002B0BDE8F081FFF7F6FC401BB842A7
:101120004FF00300BED8306A8007F5D4B8F1000F45
:101130003FF555AFF06920F08050F0614FE7206A2D
:10114000B0F5803F05D17168A26821F400311143E8
:1011500071607168626A21F4741111430843706010
:1011600001203866FFF7D0FC044600BF30688001DC
:101170003FF549AFFFF7C8FC001B02284FF0030002
:10118000F4D98FE7411E0020B0EB116F1CBF012086
:1011900070474EF21002CEF2000251604EF623511B
:1011A000CEF20001F0230B700721906011607047B0
:1011B0007047000070470000002804BF01207047FE
:1011C00010B590F83D1031B9002180F83C1004466C
:1011D00000F05EF82046022180F83D10016840F2E0
:1011E000FF740B68C4F2000442F6004CA142C4F242
:1011F000010C05DCB1F1804F0AD040F2004203E05F
:10120000614505D040F60002C4F20002914203D1CC
:10121000826823F070031343A14205DCB1F1804FD3
:101220000AD040F2004203E0614505D040F60002DA
:10123000C4F20002914203D1026923F440731343C4
:10124000846923F08002D0F804E0C368224361453A
:101250000A60CB62C1F828E002D14269CCF83020A4
:1012600001224A6180F8462080F83E2080F83F2025
:1012700080F8402080F8412080F8422080F8432008
:1012800080F8442080F8452080F83D20002010BDE3
:1012900080B582B00068B0F1804F1DD040F20041AF
:1012A000C4F20001884224D141F21C00C4F20200C1
:1012B0000168002241F0020101600068022100F093
:1012C0000200019001981D20FFF782FC1D2002B052
:1012D000BDE88040FFF76ABC41F21C00C4F2020086
:1012E000016841F001010160006800F00100009018
:1012F000009802B080BD000090F83D1001291CBF8D
:1013000001207047022180F83D10006840F2FF7113
:10131000C4F20001884205DCB0F1804F0ED040F2EB
:10132000004107E042F60041C4F20101884205D0C5
:1013300040F60001C4F20001884206D1816801F044
:101340000701062904BF00207047016841F0010130
:10135000016000207047000090F83D1001291CBF7B
:1013600001207047022180F83D10006840F2FF72B2
:10137000C168C4F20002904241F00101C16005DC85
:10138000B0F1804F0ED040F2004107E042F600413C
:10139000C4F20101884205D040F60001C4F2000108
:1013A000884206D1816801F00701062904BF0020A8
:1013B0007047016841F001010160002070470000A2
:1013C0000146006841F21113026A1A4208D1026A0A
:1013D00040F244431A4203D1026822F00102026043
:1013E0000122002081F83D20704700007047000076
:1013F00010B5044600680169890744BFC1685FEA07
:1014000081713FD420680169490744BFC1685FEA20
:10141000417143D420680169090744BFC1685FEA8C
:10142000017148D420680169C90644BFC1685FEAF8
:10143000C1614CD420680169C9071CBFC1685FEA5B
:10144000C17151D120680169090644BFC1685FEAD2
:10145000016150D420680169490644BFC1685FEA50
:1014600041614FD421680869800646BFC8685FEAB9
:10147000806010BD6FF0200220460A61BDE8104078
:10148000FFF798BE6FF002010161012121778069A9
:1014900080073ED02046FFF7A9FF40E06FF004012F
:1014A000016102212177806910F4407F3AD0204603
:1014B000FFF79CFF3CE06FF00801016104212177F8
:1014C000C069800737D02046FFF790FF39E06FF002
:1014D0001001016108212177C06910F4407F33D0E9
:1014E0002046FFF783FF35E06FF0010101612046E0
:1014F00000F032FAA6E76FF0800101612046FFF7A5
:1015000057FEA7E76FF040010161204600F056FA50
:10151000A8E7204600F022F8204600F0BFF900209E
:1015200020776FE7204600F019F8204600F0B6F962
:10153000002020776EE7204600F010F8204600F0EB
:10154000ADF9002020776DE7204600F007F820462F
:1015500000F0A4F9002020776CE70000704700003D
:1015600090F83C30012B04BF022070474FEAB202D2
:101570000123032A80F83C3000F2EC802DE9F04191
:10158000DFE802F002A63B76036842F600451C6ADB
:101590001A6AC4F2010522F001021A621A46D3F84F
:1015A00004C052F818EF8E6824F00204AB4244EAFB
:1015B000060405D1CE6824F00C0426F0040634435A
:1015C0000E68AB4206D1D1E905582CF440772F4381
:1015D00047EA080C2EF073073743C3F804C09F6135
:1015E0004F6809695F631C629F6947F008079F6144
:1015F0009F6927F004079F61A6E0036842F6004553
:101600001C6A1A6AC4F2010522F480721A621A4630
:10161000D3F804C052F81CEF8E6824F40074AB4277
:1016200044EA062407D1CE6840F2FF47360224F48C
:101630004064BE4334430E68AB4206D1D1E905573E
:101640002CF4405C3D434CEA051C2EF073073743F5
:10165000C3F804C0DF614F680969DF631C62DF699A
:1016600047F00807DF61DF6927F00407DF616BE0FF
:10167000036842F60047D3F820C01A6AC4F2010793
:1016800022F480521A621A465C6852F81C5FD1F844
:1016900000E08E68BB4204D14F6924F4804444EAE0
:1016A00087142CF4005747EA063725F4E64646EA45
:1016B0000E265C60DE614E6809691E641F62DF6988
:1016C00047F40067DF61DF6927F48067DF613AE094
:1016D000036842F600451C6A1A6AC4F2010522F04A
:1016E00010021A621A46D3F804C052F818EF8E6836
:1016F00024F02004AB4244EA061407D1CE686FF010
:10170000400724F0C00407EA061634430E68AB42D3
:1017100006D1D1E905572CF4406C3D434CEA850CC9
:101720002EF4E64747EA0627C3F804C09F614F68D6
:1017300009699F631C629F6947F400679F619F6905
:1017400027F480679F610902136819430023116021
:10175000BDE8F041002180F83C10184670470000B9
:10176000002804BF0120704710B590F83D1031B932
:10177000002180F83C10044600F05EF8204602216B
:1017800080F83D10016840F2FF740B68C4F2000459
:1017900042F6004CA142C4F2010C05DCB1F1804FCD
:1017A0000AD040F2004203E0614505D040F6000255
:1017B000C4F20002914203D1826823F07003134304
:1017C000A14205DCB1F1804F0AD040F2004203E0B3
:1017D000614505D040F60002C4F20002914203D1F7
:1017E000026923F440731343846923F08002D0F824
:1017F00004E0C368224361450A60CB62C1F828E077
:1018000002D14269CCF8302001224A6180F846209A
:1018100080F83E2080F83F2080F8402080F841206A
:1018200080F8422080F8432080F8442080F845204A
:1018300080F83D20002010BD016840F20040C4F255
:101840000000814218BF704780B584B041F2180192
:10185000C4F202010A6800F5823042F004020A6014
:101860000A6802F004020092009A4A6842F00202FA
:101870004A60496801F002010091009940210091FD
:101880000221019101210291032103916946FFF791
:101890002DF804B0BDE8804070470000704700009C
:1018A0004122082908BF4022042908BF3F220029FD
:1018B00008BF3E22825C012A1CBF01207047022221
:1018C00041B1082909D0042914BF80F8412080F8CB
:1018D0003F2004E080F83E2001E080F840200068CE
:1018E00001F01F010122036A8A4023EA020101621A
:1018F000036A42F64441C4F201011A43A1F14403D0
:101900009842026203D10A6842F400420A6040F23F
:10191000FF71C4F20001884205DCB0F1804F0ED0A7
:1019200040F2004107E042F60041C4F20101884262
:1019300005D040F60001C4F20001884206D181685A
:1019400001F00701062904BF00207047016841F03B
:101950000101016000207047006840F20041C4F2BC
:101960000001884218BF704770B540F2482640F227
:101970004C24C2F20006C2F20004328800250BA1FA
:101980002046C4E90055C4E902552561656101F0AE
:10199000ADFD0A2002212246102301F071FA2046F3
:1019A00000F00AFF3580BDE87040704753706565F0
:1019B000643A20253264636D2F7300007047000085
:1019C000002804BF0120704710B5044690F841007C
:1019D00028B9002084F84000204600F061F8242057
:1019E00084F841002068D4E90212C36823F400534C
:1019F000C360036923F440531A430261D4E904230A
:101A00001143C268194341F20C639A431143C16008
:101A10004169A26921F44071114343F60002C4F206
:101A200001029042416102D0FFF7E8F901E0FFF7BF
:101A3000F9F9D4E90023192148439900B0FBF1F0EA
:101A400048F21F5CC5F2EB1CA0FB0C314FF69C73F7
:101A50004909C0F6FF7301FB0300322303EB0010BA
:101A6000A0FB0C03F02000EA531000EB0110C3F3BD
:101A70004311084490601069202120F490401061C7
:101A8000506920F02A005061D06840F40050D060C6
:101A90000020606484F8411084F84210606310BD37
:101AA00070B584B00446006844F20041C4F20001FD
:101AB000884246D043F60001C4F2010188427DD13C
:101AC00041F21800C4F20200016840F6000541F03E
:101AD000040101600168C4F2010501F004010091F4
:101AE000009901686E4641F480410160006831460A
:101AF00000F48040009000984FF4007000900220A5
:101B0000019001200290032003902846FEF7EEFE8C
:101B10004FF4806000900020019028463146FEF787
:101B2000E5FE2520FFF742F8252003210322FFF7D9
:101B30004FF8206850F80C1F41F02001016010217F
:101B400039E041F21800C4F20200016840F60005D5
:101B500041F0040101600168C4F2010501F00401D3
:101B60000091009941686E4641F40031416040683F
:101B7000314600F4003000900098042000900220CC
:101B8000019001200290032003902846FEF7AEFE4C
:101B9000082000900020019028463146FEF7A6FE5E
:101BA0002620FFF703F8262003210322FFF710F871
:101BB000206820210C3002681143016004B070BD20
:101BC0002DE9F04381B0044690F84200202809D165
:101BD0000F4600294FF0010018BF002A06D101B0BE
:101BE000BDE8F083022001B0BDE8F083002022218F
:101BF0009946606484F8421020631546FEF784FF1E
:101C0000A585E585A1688046B1F5805F02D1206990
:101C1000002866D03E460027E08D00285AD009F102
:101C200001050CE02068002640686FF35F2027F86C
:101C3000020BE08D0138E085E08D00284AD0206855
:101C40000068800612D475B1B9F1000F05D121E00A
:101C5000016889060AD4002DFAD0FEF755FFA0EBE3
:101C60000800484516D82068F2E700BF002ED9D0FA
:101C7000A068B0F5805F07D008B9206920B120685E
:101C8000406800F07F0001E02068406806F8010B22
:101C9000CFE700BF206850E8030F216820F4D07020
:101CA00041E80302002AF5D1206850E8050F2168B9
:101CB00020F0010041E80502002AF5D1202084F837
:101CC000410084F84200002084F84000032001B065
:101CD000BDE8F083202084F84200002001B0BDE878
:101CE000F083002698E700002DE9F04381B0044618
:101CF00090F84100202809D10E4600294FF001003C
:101D000018BF002A06D101B0BDE8F083022001B05F
:101D1000BDE8F083002060642120994684F84100EA
:101D20001546FEF7F1FEA584E584A1688046B1F56D
:101D3000805F02D12069002852D037460026E08C0F
:101D4000002842D009F101050AE000BF97B117F859
:101D5000010B21684860E08C0138E084E08CA0B37E
:101D6000206800680006F1D4BDB1B9F1000F0ED1B2
:101D700016E000BF36F8020B21686FF35F20486061
:101D80000027E8E701680906E0D4002DFAD0FEF745
:101D9000BBFEA0EB0800484502D82068F2E700BF70
:101DA000206850E8030F216820F4D07041E8030256
:101DB000002AF5D1206850E8050F216820F00100C5
:101DC00041E80502002AF5D10CE0206800684006D1
:101DD00037D4B9F1000F1FD019F101050ED014E06E
:101DE0000027ACE7202084F8410084F8420000205E
:101DF00084F84000032001B0BDE8F083206800BFF4
:101E0000016849061DD4002DFAD0FEF77DFEA0EB37
:101E100008004845F2D900BF206850E8030F216848
:101E200020F4D07041E80302002AF5D1206850E880
:101E3000050F216820F0010041E80502002AF5D1D4
:101E4000D0E7202084F84100002001B0BDE8F083F5
:101E5000FEE70000FEE7000070470000704700004A
:101E600070470000FEF756BE7047000040F2642045
:101E7000C2F200004FF08041002347224FF6FF7C62
:101E800080E80E108361FFF797B9000040F21C1044
:101E9000C2F20000FFF7ACBA10B540F21C1440F2D9
:101EA0000040C2F20004C4F2000041F61F4142F2B9
:101EB0000F72002384E80B002046E260A361FFF765
:101EC0007BF92046BDE81040FFF746BA70B582B0F6
:101ED00040F2AC25C2F20005002029688DF8070009
:101EE000086840F274368006C2F2000619D53088C0
:101EF0000DF10701802824BF0020308040F2AC2083
:101F0000C2F2000001224FF47A73FFF759FE3088C5
:101F10009DF80710421C328040F2F422C2F2000207
:101F2000115428680068C00614D540F2F424C2F2A7
:101F3000000409A0214601F0C9FA20468021FEF7DD
:101F400008F90020308000902868016800914068FE
:101F50000090009802B070BD726563763A202573D8
:101F60000D0A000010B582B040F21401C2F2000167
:101F7000002009688DF80700086880061DD540F22A
:101F80001004C2F2000420880DF10701802824BF4C
:101F90000020208040F21400C2F2000001224FF421
:101FA0007A73FFF70DFE20889DF80710421C2280EF
:101FB00040F25C02C2F20002115402B010BD0000F7
:101FC000FEE70000002808BF70474EF2100141F6FE
:101FD000401CCEF20001C0F2010C0023C1F804C085
:101FE0008B600A6842F004020A600A6842F001024B
:101FF0000A6000BF0A6802F00112012AFAD00A68DA
:10200000013822F001020A60E8D170474EF2100157
:1020100000EBC000CEF20001C000486000208860E4
:10202000086840F004000860086840F0010008609B
:10203000086800F001100128FAD0086820F00100BB
:1020400008607047F0B581B000F002FC0446FEF76E
:102050007FF940F27012C2F20002C2E900010021D1
:10206000C4F20C212046FEF714F910B900F002FE6C
:1020700050E00021C4F270112046FEF718F910B9A3
:1020800000F0DCFD46E000F07FFE01F059F94FF46E
:10209000FA70FFF797FF00F0DBFBFEF759F940F20B
:1020A0006816C2F20006C6E9000101F051F94FF4CA
:1020B000FA70FFF787FF01F053F94FF4FA70FFF75A
:1020C00081FF00F0C5FBFEF743F9044640F24020D3
:1020D000D6E900760D46C2F20000C0E90045384658
:1020E000314622462B46FEF70BF910B900F030FEC0
:1020F00009E03846314622462B46FEF7E6F800282E
:1021000008BF00F009FEC820FFF75CFF00F03CFEAE
:1021100001F01EF9642001B0BDE8F040FFF752BFA6
:102120002DE9F043A1B001AD0B46024621A128469E
:1021300001F0DCF940F25C08C2F200084046802160
:10214000FEF707F840F21007C2F2000700203880BF
:102150002846FEF725F882B240F21400C2F20000D1
:1021600029466423FFF7C0FD4FF6300440F2120504
:10217000CFF6FF74C2F200050FF25409002605E005
:1021800028800A20FFF71EFF01340DD2388800286E
:10219000F7D029888842F3D1404649463E80FDF772
:1021A000E3FF0028EDD000E00126304621B0BDE875
:1021B000F08300BF41542B43495053544152543D86
:1021C00022544350222C222573222C25730D0A0001
:1021D000434F4E4E454354002DE9F043A1B001ADAD
:1021E000024623A1284601F081F940F25C08C2F2C0
:1021F000000840468021FDF7ACFF40F21007C2F214
:102200000007002038802846FDF7CAFF82B240F25E
:102210001400C2F2000029466423FFF765FD4FF663
:10222000300440F2120545F21279CFF6FF74C2F283
:102230000005C0F60009002606E000BF28800A203D
:10224000FFF7C0FE01340DD238880028F7D0298866
:102250008842F3D1404649463E80FDF785FF00287D
:10226000EDD000E00126304621B0BDE8F08300BF8C
:1022700041542B4349504D55583D25640D0A0000EB
:102280002DE9F04740F25C08C2F200084FF6300436
:1022900040468021CFF6FF74FDF75BFF40F2100748
:1022A000C2F200070020388040F21400C2F20000A1
:1022B0002BA10E226423FFF717FD40F2120A45F20C
:1022C0001279C2F2000AC0F600092646002506E08F
:1022D000AAF800000A20FFF775FE01360ED23888F2
:1022E0000028F7D0BAF800108842F1D1404649469C
:1022F0003D80FDF739FF0028ECD000E0012540F2D9
:102300005C08C2F2000840468021FDF722FF002051
:10231000388040F21400C2F2000015A10C226423A0
:10232000FFF7E2FC002606E0AAF800000A20FFF70B
:1023300049FE01340ED238880028F7D0BAF80010D0
:102340008842F1D140463E213E80FDF71FFF002824
:10235000ECD000E0FF26A81B18BF0120BDE8F087E5
:1023600041542B4349504D4F44453D310D0A000027
:1023700041542B43495053454E440D0A0000000080
:102380002DE9F04F81B006464FF630079DA0CFF6FD
:10239000FF7701F03FFD40F2140544F20040C2F225
:1023A0000005C4F2000000240C21C5E900062846FF
:1023B000C5E90244C5E90441AC61FFF701FB40F205
:1023C0005C09C2F2000948468021FDF7C2FE40F2D6
:1023D0001006C2F2000690A128460C226423348025
:1023E000FFF782FC40F21205C2F200050FF2382A14
:1023F00006E000BF28800A20FFF7E4FD01370CD279
:1024000030880028F7D029888842F3D148465146C1
:102410003480FDF7A9FE0028EDD040F25C0440F2C4
:10242000140945F23E6A45F2127BC2F2000400270D
:10243000C2F20009C0F6000AC0F6000B04E000BFBB
:102440004FF4FA70FFF7BEFD20468021FDF781FEB4
:1024500048465146042264233780FFF745FC4FF677
:102460003008CFF6FF7806E028800A20FFF7AAFDA3
:1024700018F10108E4D230880028F6D02988884273
:10248000F2D1204659463780FDF76EFE0028ECD089
:1024900067A001F0BFFC40F25C0840F2140945F26D
:1024A000306A45F2127BC2F200080027C2F200092E
:1024B000C0F6000AC0F6000B04E000BF4FF4FA704B
:1024C000FFF780FD40468021FDF743FE4846514618
:1024D0000D2264233780FFF707FC4FF63004CFF658
:1024E000FF7405E028800A20FFF76CFD0134E5D277
:1024F00030880028F7D029888842F3D140465946D1
:102500003780FDF731FE0028EDD051A001F082FCAC
:102510000020FFF761FE20B14FF4FA70FFF752FD83
:10252000F6E752A001F076FC45F20E7045F2FF612D
:10253000C0F60000C0F6000100F0AAF890B145F224
:102540000E7445F2FF65C0F60004C0F6000500BF3A
:1025500040F2DC50FFF736FD2046294600F098F89F
:102560000028F5D145F29660C0F6000001F052FC5B
:1025700045F2F06045F2EB61C0F60000C0F60001E4
:10258000FFF7CEFD90B145F2F06445F2EB65C0F681
:102590000004C0F6000500BF4FF4FA70FFF712FD0B
:1025A00020462946FFF7BCFD0028F5D145F24360DF
:1025B00045F2F06145F2EB62C0F60000C0F60001A2
:1025C000C0F6000200F082FFFFF75AFE20B14FF480
:1025D000FA70FFF7F7FCF7E745F2C260C0F60000BB
:1025E00001F018FC45F2AA60C0F6000001F012FCF0
:1025F00045F28060C0F6000001B0BDE8F04F01F088
:1026000009BC00BF496E697469616C697A652073A1
:102610007461727473200D0041542B524553544F12
:1026200052450D0A000000007265616479000000E7
:10263000312E2045535038323636206D6F64756C1C
:1026400065206973207265616479200D00000000C7
:10265000322E204D6F646520697320736574207479
:102660006F2053544154494F4E200D00332E2043C8
:102670006F6E6E656374696F6E2069732073657425
:1026800020746F2073696E676C65204950200D00BF
:102690002DE9F043A1B001AD0B46024622A1284628
:1026A00000F024FF40F25C08C2F20008404680219E
:1026B000FDF74FFD40F21007C2F2000700203880FE
:1026C0002846FDF76DFD82B240F21400C2F2000010
:1026D00029466423FFF708FB4FF6300440F2120549
:1026E00045F21279CFF6FF74C2F20005C0F6000978
:1026F000002605E028800A20FFF764FC01340DD293
:1027000038880028F7D029888842F3D140464946C6
:102710003E80FDF729FD0028EDD000E0012630467F
:1027200021B0BDE8F08300BF41542B43574A4150CC
:102730003D222573222C222573220D0A0000000061
:10274000F0B581B040F21006C2F20006318821B324
:1027500040F21202C2F20002138899421CD140F2E8
:102760005C0410A1C2F20004002705460846214679
:10277000378000F0ABFE2046FDF712FD02462846EA
:102780002146FDF7CDFC20468021FDF7E2FC2846DE
:102790003780FDF705FD01E01180002080B201B017
:1027A000F0BD00BF657370383236362072656376CF
:1027B0003A2025730D0A000083B010B581B040F2B5
:1027C000DC04844603A8C2F200040EC003AA20461B
:1027D0006146009200F09EFE2046FDF7E1FC82B2C9
:1027E00040F21400C2F2000021466423FFF77CFA95
:1027F00001B0BDE8104003B07047000080B584B060
:1028000041F21800C4F20200016841F008010160C1
:102810000068694600F00800009000986020009071
:102820000020CDE901000320039040F60040C4F2EF
:102830000100FEF75BF804B080BD000043F6000124
:10284000C4F201010A685206FCD5C2B24A60704760
:10285000B0B540F60004C4F2010420464FF48051A4
:102860000122FEF74BF90F20FFF7D0FB20464FF473
:1028700080510022FEF742F920464FF40061FEF736
:1028800037F90028F8D040F26425C2F20005284646
:10289000FEF732FD28680021416200BF20464FF458
:1028A0000061FEF725F90128F8D02846FEF788FDDB
:1028B0002868406A80B2FDF73EFD46F6007248F691
:1028C000C573C0F28142C3F69173FDF770FCFDF74A
:1028D00052FDB0BD80B540F60040C4F20100202199
:1028E000FEF706F9B0FA80F0400980BD80B540F6E9
:1028F0000040C4F201008021FEF7FAF8B0FA80F03F
:10290000400980BD80B540F60040C4F2010040217E
:10291000FEF7EEF8B0FA80F0400980BD80B540F6D1
:102920000040C4F201001021FEF7E2F8B0FA80F096
:10293000400980BD70B584B0FFF798FA41F21800E5
:10294000C4F20200016840F6000441F00401016095
:102950000168C4F2010401F00401009100990168CA
:102960006D4641F0040101600068002600F004009B
:10297000009000984FF480500090012001900320B7
:102980000390204629460296FDF7B0FF4FF4006001
:10299000CDE9000620462946FDF7A8FF04B070BD2A
:1029A00040F60040C4F201004FF480710022FEF7AF
:1029B000A5B8000040F60040C4F201004FF40071D9
:1029C0000122FEF79BB8000010B584B041F2180058
:1029D000C4F20200016840F6004441F008010160C1
:1029E0000068C4F2010400F00800009000984FF461
:1029F000407000900120019000200290032003907D
:102A000069462046FDF772FF20464FF4807101228F
:102A1000FEF774F820464FF400710122FEF76EF8BD
:102A200004B010BD40F60004C4F20104FEF780F8C3
:102A30004FF4E01000F0C8FCFFF7C6FFFFF7B0FF4F
:102A4000FFF7B8FF4FF4E13000F00CFD4FF4E13038
:102A5000FFF796FC00F02AF900F08AFC45F22265A7
:102A6000C0F60005284601F0D5F900F04DFA002027
:102A700000F022FAFFF7C2FEFFF75CFF00F034FC23
:102A800000F0D0FC00F004FD284601F0C3F900F08E
:102A900095F805E020460421FEF72AF800284DD0DD
:102AA00020460421FEF724F8B0B920460121FEF7A4
:102AB0001FF8012810D120460221FEF719F801283D
:102AC0000AD1FFF713FF012847D1FFF727FF01289D
:102AD00043D100F0CFF8E3E720460421FEF708F8E1
:102AE000012815D120460121FEF702F880B92046C1
:102AF0000221FDF7FDFF01280AD1FFF7EBFE0128B7
:102B00003CD1FFF7FFFE012838D100F0B3F8C7E74A
:102B100020460421FDF7ECFF0128BBD1204601210E
:102B2000FDF7E6FF0128B5D120460221FDF7E0FFC1
:102B30000028AFD1FFF786FAB2E700BF2046012197
:102B4000FDF7D6FF0028ABD120460221FDF7D0FFCC
:102B5000002808BF00F032F8A2E7FFF7C7FE0128FF
:102B600002D1FFF7DBFE10B3FFF7C0FEC8B9FFF7D5
:102B7000D5FE012815D100F0CFF891E7FFF7AAFEA6
:102B8000012802D1FFF7BEFEA0B1FFF7A3FE054664
:102B9000FFF7B8FE002D08BF012805D000F0F4F8BB
:102BA0007EE700F0F1F87BE700F0D2F878E700F07C
:102BB000CFF875E700F0B0F872E7000010B540F20A
:102BC000C014C2F200042046FFF7BAFD17A1204648
:102BD000FDF7CAFA10B100F04DF822E040F2C01043
:102BE000C2F2000012A1FDF7BFFA10B100F026F802
:102BF00017E040F2C010C2F200000EA1FDF7B4FAD7
:102C000010B100F089F80CE040F2C010C2F20000F0
:102C100009A1FDF7A9FA10B100F09AF801E000F05F
:102C2000B3F80A20BDE81040FFF7CCB94D310000E1
:102C30004D3200004D3300004D34000010B540F619
:102C40000044C4F20104204601210022FDF756FF92
:102C5000204602210122FDF751FF204604210022D7
:102C6000FDF74CFF20464FF480610122BDE8104083
:102C7000FDF744BF10B540F60044C4F201042046FD
:102C800001210122FDF73AFF204602210022FDF733
:102C900035FF204604210122FDF730FF20464FF486
:102CA00080610022BDE81040FDF728BF10B584B058
:102CB00041F21800C4F20200016840F6004441F0FD
:102CC000080101600068C4F2010400F008000090EF
:102CD000009840F2074000900120CDE90100032058
:102CE000039069462046FDF701FE2046012100229F
:102CF000FDF704FF204602210022FDF7FFFE2046DB
:102D000004210022FDF7FAFE20464FF480610022E4
:102D1000FDF7F4FE04B010BD10B540F60044C4F257
:102D20000104204601210022FDF7E8FE2046022191
:102D30000022FDF7E3FE204604210122FDF7DEFE1E
:102D400020464FF480610022BDE81040FDF7D6BE5A
:102D500010B540F60044C4F20104204601210122CE
:102D6000FDF7CCFE204602210022FDF7C7FE2046DB
:102D700004210022FDF7C2FE20464FF480610022AC
:102D8000BDE81040FDF7BABE10B540F60044C4F2ED
:102D90000104204601210022FDF7B0FE2046022159
:102DA0000022FDF7ABFE204604210022FDF7A6FE1F
:102DB00020464FF480610022BDE81040FDF79EBE22
:102DC0002DE9F04F85B01C46DE0867074FF0010380
:102DD00018BF03EBD406002E04964DD05039039152
:102DE00000F00F010009103001906008203A0090B7
:102DF00045F22200D6B243F65268C0F6000044F60F
:102E0000AE3A0027C0F6000800EB0619C0F6000A2B
:102E1000029102E0049887422ED003983844C0B251
:102E200000F014F9029800F011F9019800F00EF981
:102E3000009807FB00FB013707FB00F506E000BF29
:102E40004844007800F0A8F90BF1010B5FFA8BF011
:102E50008542DFD9182C09D0102CF1D00C2CF3D1DD
:102E600006EB46010AEB810104E000BF06EBC60158
:102E700008EB81010844E4E705B0BDE8F08F0000ED
:102E80002DE9F04198461378002B08BFBDE8F0818A
:102E90000D4606464FEA5807541E00BFF0B2DAB29C
:102EA00029464346FFF78CFFA3783E44002B04F1EC
:102EB0000104F3D1BDE8F0812DE9F04104464FF063
:102EC000000800BF68F04F000027C5B2284600F098
:102ED000BDF807F00F00FEB200F0B8F8300910306E
:102EE00000F0B4F8204600F057F9781C47B2B7F16B
:102EF000FF3FEBDC5FFA88F008F10108072828BFE4
:102F0000BDE8F081DEE700002DE9F04784B041F232
:102F10001806C4F20206306840F6004440F008008B
:102F200030603068C4F2010400F00800009000989E
:102F300030686D4640F00800306030684FF48078AB
:102F400000F008000090009801274FF00309204688
:102F50002946CDF80080CDE90177CDF80C90FDF73A
:102F6000C5FC4FF4007A20462946CDF800A0FDF7B5
:102F7000BDFC30686D4640F008003060306829467E
:102F800000F0080000900098306840F008003060C1
:102F9000306800F00800009000982046CDE90087D6
:102FA000CDE90279FDF7A2FC20462946CDF800A024
:102FB000FDF79CFC6420FFF705F8AE2000F046F812
:102FC000D52000F043F8802000F040F8A82000F061
:102FD0003DF83F2000F03AF8D32000F037F8002009
:102FE00000F034F8402000F031F8A12000F02EF875
:102FF000C82000F02BF8DA2000F028F8122000F0AA
:1030000025F8812000F022F8CF2000F01FF8D92009
:1030100000F01CF8F12000F019F8DB2000F016F8A1
:10302000302000F013F8A42000F010F8A62000F0E3
:103030000DF88D2000F00AF8142000F007F8AF20FA
:1030400000F004F804B0BDE8F0870000F0B581B0EE
:1030500040F60044C4F20104054620464FF4807156
:103060000122FDF74BFD20464FF400710122FDF7D0
:1030700045FD20464FF4007100220026FDF73EFD7D
:1030800020464FF480710022FDF738FD782700BFFD
:10309000F8B2C20920464FF40071FDF72FFD20461B
:1030A0004FF4807101227F00FDF728FD20464FF488
:1030B00080710022FDF722FD072E06F10106E7D3FD
:1030C00020464FF480710122FDF718FD20464FF491
:1030D000807100220026FDF711FD00BF20464FF44D
:1030E00000710022FDF70AFD20464FF48071012295
:1030F000FDF704FD20464FF480710022FDF7FEFC31
:10310000072E06F10106E9D320464FF48071012213
:10311000FDF7F4FC20464FF4807100220026FDF7F5
:10312000EDFC00BFE8B2C20920464FF40071FDF784
:10313000E5FC20464FF4807101226D00FDF7DEFCB6
:1031400020464FF480710022FDF7D8FC072E06F1CF
:103150000106E7D320464FF480710122FDF7CEFC33
:1031600020464FF480710022FDF7C8FC20464FF442
:1031700080710122FDF7C2FC20464FF4007100224D
:10318000FDF7BCFC20464FF40071012201B0BDE800
:10319000F040FDF7B3BC0000F0B581B040F600444C
:1031A000C4F20104054620464FF480710122FDF768
:1031B000A5FC20464FF400710122FDF79FFC20463C
:1031C0004FF4007100220026FDF798FC20464FF4D2
:1031D00080710022FDF792FC782700BFF8B2C20987
:1031E00020464FF40071FDF789FC20464FF48071B2
:1031F00001227F00FDF782FC20464FF480710022FF
:10320000FDF77CFC072E06F10106E7D320464FF4BC
:1032100080710122FDF772FC20464FF4807100227C
:103220000026FDF76BFC4027F8B2C20920464FF498
:103230000071FDF763FC20464FF4807101227F008E
:10324000FDF75CFC20464FF480710022FDF756FC30
:10325000072E06F10106E7D320464FF480710122C4
:10326000FDF74CFC20464FF4807100220026FDF74C
:1032700045FC00BFE8B2C20920464FF40071FDF7DB
:103280003DFC20464FF4807101226D00FDF736FCB5
:1032900020464FF480710022FDF730FC072E06F126
:1032A0000106E7D320464FF480710122FDF726FC8A
:1032B00020464FF480710022FDF720FC20464FF499
:1032C00080710122FDF71AFC20464FF400710022A4
:1032D000FDF714FC20464FF40071012201B0BDE857
:1032E000F040FDF70BBC0000B0B588B040F2781498
:1032F00040F20040C2F20004C4F20000002541F692
:103300001F41C72284E8230020460795CDE90555D3
:10331000CDE90355CDE90155E260FEF721FA6020C1
:1033200001906420CDE9020501A920460022FEF7A4
:1033300017F920460021FEF7B3FA08B0B0BD00002F
:1033400040F27810C2F20000006819214163704712
:1033500040F27810C2F2000000680F21416370470C
:1033600040F27810C2F20000006805214163704706
:1033700080B584B041F21800C4F20200016841F047
:10338000080101600068694600F00800009000989C
:103390004FF4805000900020C1F2210001900120E4
:1033A000029040F60040C4F20100FDF79FFA282089
:1033B00002210022FDF70CFC2820FDF7F7FBFEF7A9
:1033C0006BFD04B080BD0000F0B58FB005AD0446C4
:1033D00028462821FCF7BDFE0120002605904FF469
:1033E00080300227CDE90606CDE90C702846049608
:1033F000CDE90266CDE900660E94FDF727FD00B128
:10340000FEE70F20CDE900074FF48060CDE9030609
:10341000684602210296FDF717FC00B1FEE70FB0E7
:10342000F0BD000080B584B041F21800C4F2020083
:10343000016841F0080101600068694600F0080079
:1034400000900098902000900020CDE9010003201A
:10345000039040F60040C4F20100FDF747FA04B0C3
:1034600080BD000040F2AC2143F60002C2F2000130
:10347000C4F2010200234FF00C0CC1E90020084601
:10348000C1E90233C1E9043C8B61FEF799BA00003F
:1034900080B584B041F21800C4F20200016841F026
:1034A000040101600068694600F004000090009883
:1034B00007200090002001900320039040F60000B8
:1034C000C4F20100FDF712FA04B080BD0FB4054B41
:1034D00010B503A9044A029800F000F910BC5DF889
:1034E00014FB00003D280008000000200FB4084B2A
:1034F00010B504A902AA039800F0F0F8044602A946
:10350000002000F082FC204610BC5DF814FB000097
:103510000B3E000837B514460846064B6A4621465E
:1035200000F0DCF804466946002000F06EFC2046FE
:103530003EBD00000B3E000802E008C8121F08C193
:10354000002AFAD170477047002001E001C1121F24
:10355000002AFBD1704700002DE9FF5F82B00021F7
:10356000DDE90430020DDDF840B0034318D044F625
:103570001050A2F2FF3242431514119801281FD0B7
:10358000A5EB0B00401C5FEA000A4FF000064E4F0F
:10359000DFF83891B046504615D5CAF1000413E063
:1035A000119801244AA3012801D16FEA0B01029866
:1035B000119AC0E90031C0E9024206B0BDE8F09FAF
:1035C000CBF10000DFE704460021404A491842EBF6
:1035D0000450CDE9001012E0E00707D032463B4628
:1035E00040464946FCF7E3FD8046894632463B4665
:1035F00010461946FCF7DBFD06460F466410002C0A
:10360000EAD1DDE90401DDE90023BAF1000F06DAB1
:10361000FCF7CDFD42464B46FCF7C9FD05E0FDF742
:1036200048F842464B46FDF744F804460E46002251
:10363000284BFDF7C5F803D84FF0FF30014607E0EF
:103640000022254B20463146FCF78CFFFDF7A0F801
:10365000102409E0002C0ADB0A220023FCF7BDFE3F
:10366000039B30321A55641E50EA0102F2D1641CE9
:10367000039AC4F111031444119A012A03D00122C0
:1036800008430DD10AE0084304D000204FF0110B8D
:10369000119072E7A3EB0B056D1E0DE05B4504DD99
:1036A0004FF0000205F1010504E003DA4FF00002DB
:1036B000A5F10105002AECD002981199C0E9023168
:1036C000C0E9004579E70000000014400000F03F29
:1036D000300000000000F0430000E03F2DE9FF4F04
:1036E00095B09B468946064600250FE2252877D1EE
:1036F00000242746F84A0121059400E0044316F807
:10370000013F203B01FA03F01042F7D130782A281C
:1037100011D06FF02F033078A0F13002092A16D8AB
:10372000059A44F0020402EB820203EB42021044C9
:10373000761C0590EFE759F8042B0592002A03DA6E
:10374000504244F40054059044F00204761C307852
:103750002E2816D116F8010F44F004042A280DD0A3
:103760006FF02F023078A0F13003092B09D807EB56
:10377000870302EB4303C718761CF3E759F8047B71
:10378000761C30786C280FD006DC4C2817D06828BF
:103790000DD06A2814D104E0742810D07A280FD1F3
:1037A0000DE044F400140AE044F4801401E044F411
:1037B00040147278824202D104F58014761C761C83
:1037C000307866280BD013DC582877D009DC002825
:1037D00075D04528F6D04628F4D047281AD19DE167
:1037E00018E0632835D0642879D0652812D195E196
:1037F000702873D008DC6728F1D069286FD06E2854
:103800000DD06F2806D1B5E073282CD0752875D05F
:10381000782874D05A46179990476D1C75E1C4F307
:103820000250022809D003280DD0D9F8001004282E
:103830000DD00D6009F1040967E1D9F80010EA170D
:10384000C1E90052F6E7D9F800100D80F2E70D70DB
:10385000F0E719F8041B8DF8001000208DF8010026
:10386000EA46012003E059F804AB4FF0FF3061074E
:103870004FF0000102D40DE008F101018846B94281
:103880000FDA8045F8DB1AF808100029F4D108E0B7
:1038900008F1010188468142FADB1AF80810002974
:1038A000F6D105985B46A0EB080721463846179AE3
:1038B00000F094FA284400EB080507E04DE029E108
:1038C0000DE01AF8010B5A4617999047B8F1010814
:1038D000F7D25B4621463846179A13E142E00A22A6
:1038E0000092C4F302524FF0000A022A08D059F89D
:1038F00004CB032A4FEAEC710AD00DE029E02AE05C
:1039000009F1070121F00702F2E802C1914609E03E
:103910000FFA8CFC4FEAEC71042A03D14FFA8CFCAD
:103920004FEAEC71002907DA0A460021DCF1000CAD
:1039300061EB02012D2202E0220504D52B228DF835
:103940000420012203E0E20701D02022F7E790469D
:1039500059E00A2102E010220DE010214FF0000A88
:1039600000910BE010224FF0000A44F004040827F5
:10397000009203E008224FF0000A0092C4F30252C2
:10398000022A05D059F804CB0021032A08D009E007
:1039900009F1070121F00702F2E802C1914605E0B2
:1039A0001FFA8CFC042A01D10CF0FF0C4FF0000828
:1039B000220728D5702806D0009B83F0100353EA15
:1039C0000A0305D00EE040228DF80420012208E011
:1039D0005CEA010206D030228DF804208DF8050043
:1039E00002229046009B83F0080353EA0A030AD19F
:1039F0005CEA010201D1620705D530228DF804206E
:103A00004FF001087F1E582804D034A003900EA860
:103A100002900DE036A0F9E753466046009AFCF7A5
:103A2000DCFC84460398825C0298401E029002707F
:103A30005CEA0100F0D1029806A9081A00F1200AF8
:103A4000600702D524F4803400E00127574502DDE9
:103A5000A7EB0A0000E0002000EB0A0100900598A7
:103A60004144401A0590E00306D45B462146179A6C
:103A7000059800F0B3F90544002706E001A85A466E
:103A8000C05D179990476D1C7F1C4745F6DBE0032E
:103A90000CD55B462146179A059800F09FF905441E
:103AA00004E030205A46179990476D1C0099481E33
:103AB00000900029F5DC08E0029802995A46007847
:103AC000491C0291179990476D1CBAF10001AAF1A7
:103AD000010AF1DC65E100000928010030313233D0
:103AE000343536373839616263646566000000003A
:103AF0003031323334353637383941424344454624
:103B00000000000000F058F90544761C30780028C9
:103B10007FF4ECAD19B02846BDE8F08F620700D401
:103B2000062709F1070222F0070CFCE80223E14610
:103B300003F000485FEA080C02D00FF2702C0DE091
:103B40005FEA045C02D50FF2682C07E05FEAC47CF0
:103B500002D00FF2602C01E0AFF2700C4FF0FF3892
:103B600023F00043CDF850C065280CD006DC452872
:103B700009D046281DD047283DD13DE0662818D001
:103B800067287ED138E00021112F01DB112000E0F1
:103B9000781CCDE9000106A90EA8FFF7DDFCDDE9E0
:103BA0000F010E9A03910021009207F1010A04917E
:103BB0004DE04FF000400097CDE9011006A90EA896
:103BC000FFF7CAFCDDE90F0203920E9B1199002258
:103BD000DDF80CA00093049211B9791C00EB010AE6
:103BE000B7EB0A0004D4C0F1FF3007F1010A0490DA
:103BF000AAEB0700019044E0012F00DA0127002121
:103C0000112F01DD112000E03846CDE9000106A9A1
:103C10000EA8FFF7A1FCDDE90F010E9A0391002128
:103C200004910092BA4621070CD40399514500DA59
:103C30008A46BAF1010F05DD009AAAF10101515C33
:103C4000302908D0B84202DA10F1040F06DA012157
:103C5000CDE9011015E0AAF10101E9E7002805DC32
:103C6000049901440491AAEB000102E0411C514572
:103C700000DD8A460499401A401C01904FF0004034
:103C80000290200704D40198504501DBCDF8048050
:103C900000208DF84F0002980DF14F07B0F1004F52
:103CA00025D02B200E9002984FF0020800280CDA45
:103CB000404202902D200E9007E00A210298FCF766
:103CC00076FB3031029007F8011DB8F10001A8F130
:103CD0000108F2DC02980028EFD1791E0E980870D6
:103CE000307800F0200040F0450007F8020D12A8DF
:103CF000C01B00F107081498007800B1012000EB08
:103D00000A01019801EBE07105984144401A401EF8
:103D10000590E00306D45B462146179A059800F00B
:103D20005DF805441498007818B15A4617999047E1
:103D30006D1CE00324D55B462146179A059800F0D8
:103D40004DF805441CE00498002807DBDDE9030179
:103D5000884203DD0098405C179901E017993020F4
:103D60005A469047049805F10105401C04900198BB
:103D7000401E019004D12E205A46179990476D1C81
:103D8000BAF10001AAF1010ADDDC05E017F8010B28
:103D90005A46179990476D1CB8F10001A8F1010827
:103DA000F4DC5B462146179A0598ABE62D0000002F
:103DB0002B000000200000002DE9F0410446002502
:103DC0001E461746880404D405E039462020B04733
:103DD0006D1C641EF9D52846BDE8F0812DE9F0413F
:103DE000044600251E469046C80301D5302700E052
:103DF0002027880404D505E041463846B0476D1CAD
:103E0000641EF9D52846BDE8F0810A68531C0B6092
:103E10001070704710B5044601E0FEF70FFD14F86E
:103E2000010B04490028F8D1BDE810400A20FEF734
:103E300005BD0000000000200000000000000000A0
:103E40000102030406070809000000000102030440
:103E5000010200000000000000000000000000005F
:103E60000000000000000000000000000000000052
:103E70000000000000000000000000F0F0F0000072
:103E800000000000000000017F01000000000000B1
:103E90000000001C1C1C0000000000008060301CA2
:103EA0008C60301C0C0000000000000000000000CE
:103EB0000000000000000000000000000000000002
:103EC00000E00000000000E000000086E69F86861B
:103ED0008686E69F860000011F01010101011F0186
:103EE0000100000080C06020F820E0C00000000059
:103EF00003070C18FF70E18100000000070F10108D
:103F00007F100F0700008060206080000000E0202C
:103F100000000F3020309F70DC371030C0000000F0
:103F2000100E03000718101807000000C02020E042
:103F3000C0000000000080E01F38E88703C43C0494
:103F40000000070F1810100B070D1010080000805C
:103F50008C4C380000000000000000000000000051
:103F60000000000000000000000000000000000051
:103F7000000000000000000080E0300804000000A5
:103F8000000000FEFF010000000000000000000033
:103F9000030F1820400000040830E08000000000FB
:103FA00000000000000001FFFE00000000000040D3
:103FB00020180F03000000000000000000000000B7
:103FC000C00000000000004266663C18FF183C6616
:103FD0006642000000000000030000000000000036
:103FE0000000000080000000000000101010101001
:103FF000FF1010101010000000000000030000006F
:1040000000000000000000000000000000000000B0
:104010000000000000000000000000808C4C380010
:104020000000000000000000000000000000000090
:1040300000000010101010101010101010000000E0
:104040000000000000000000000000000000000070
:104050000000000000000000000000000000000060
:10406000000000001C1C1C000000000000000000FC
:10407000000000000000E0380C000000000080702C
:104080001C03000000000060380E0100000000006A
:104090000000000080C060202060C080000000FEA2
:1040A000FF010000000001FFFE000001070E1810D4
:1040B00010180E0701000000808080C0E0000000A2
:1040C00000000000000000FFFF00000000000000F2
:1040D0001010101F1F101010000000804020202022
:1040E0002060C080000000030300804020381F07CC
:1040F0000000001C1A1918181818181F000000805A
:10410000C020202060C080000000000303001010C9
:10411000182FE780000000070F10101010180F076D
:104120000000000000000000C0E0F000000000C03F
:10413000B088868180FFFF808000000000000010B2
:10414000101F1F1010000000E06060606060606081
:10415000000000003F1008080818F0E00000000709
:104160000B101010101C0F030000000080C0402036
:104170002020E0C0000000FCFF211008080818F013
:10418000E0000001070C18101010080F03000000D9
:10419000C0E06060606060E060000000030000005C
:1041A000E0180700000000000000001F1F000000D2
:1041B00000000080C0602020202060C080000087B8
:1041C000EF2C1818303068CF830000070F0810104C
:1041D0001010180F07000000C0C020202020C08051
:1041E0000000001F3F604040402010FFFE00000024
:1041F0000C1C101010080F0300000000000000004D
:1042000000000000000000000000000E0E0E000084
:10421000000000000000001C1C1C0000000000004A
:104220000000000000000000000000000000000C82
:104230000C000000000000000000005838000000E2
:10424000000000000000000000804020100000007E
:10425000102844820100000000000000000000005F
:10426000010204081000000000000000000000002F
:104270000000008484848484848484848400000016
:10428000000000000000000000000000102040803E
:10429000000000000000000000000000018244282F
:1042A000100000001008040201000000000000C01F
:1042B00020201010101030E0C0000003030000F0B8
:1042C00010080C070300000000001C1C1C0000006C
:1042D0000000000000C0406020202040C00000FC22
:1042E000FF01F00E03C1FE03807F0001070E0811DD
:1042F0001110110904020000000080E0E00000003D
:1043000000000000807C4340477FF88000001018C8
:104310001F1000000000131F1C1020E0E0202020D0
:104320002060C080000000FFFF10101010182FE761
:104330008000101F1F1010101010180F0700000031
:1043400080C0402020202060E00000FCFF01000031
:104350000000000001000001070E181010100804F2
:10436000030020E0E02020202040C080000000FF6B
:10437000FF000000000001FFFE00101F1F101010C2
:1043800018080E07010020E0E020202020202060F7
:10439000800000FFFF101010107C00000000101FB4
:1043A0001F10101010101018060020E0E020202030
:1043B00020206060800000FFFF101010107C0000C3
:1043C0000100101F1F10000000000000000000008E
:1043D00080C06020202040E0000000FCFF010000C1
:1043E0004040C0C140400001070E181010100F0FD0
:1043F000000020E0E0200000000020E0E02000FFBE
:10440000FF101010101010FFFF00101F1F100000F1
:104410000000101F1F100000202020E0E0202020BE
:1044200000000000000000FFFF000000000000008E
:104430001010101F1F10101000000000000020209E
:1044400020E0E020202000000000000000FFFF002E
:1044500000000060E0808080C07F3F00000020E01E
:10446000E020000020A06020200000FFFF30187C2A
:10447000E3C000000000101F1F10000001131F1CEC
:10448000181020E0E020000000000000000000FF05
:10449000FF000000000000000000101F1F1010109F
:1044A00010101018060020E0E0E000000000E0E03E
:1044B000E02000FF013FFEC0E01E01FFFF00101FD3
:1044C0001000031F0300101F1F1020E0E0C00000B9
:1044D00000000020E02000FF0003071C78E08000BF
:1044E000FF00101F100000000000030F1F0000005D
:1044F00080C060202060C080000000FEFF0100003E
:10450000000000FFFE000001070E181010180C0735
:10451000010020E0E0202020202060C0800000FF7B
:10452000FF2020202020301F0F00101F1F10000030
:10453000000000000000000080C060202060C080FB
:10454000000000FEFF010000000000FFFE0000016F
:10455000070E1111133C7C67210020E0E020202091
:10456000202060C0800000FFFF101030F0D0080F46
:104570000700101F1F10000000030F1C1010008008
:10458000C060202020204040E00000070F0C1818D9
:10459000303060E08100001F0C0810101010180F60
:1045A00007008060202020E0E020202060800100C3
:1045B000000000FFFF000000000100000000101FCD
:1045C0001F100000000020E0E0200000000000209C
:1045D000E02000FFFF00000000000000FF000007D7
:1045E0000F1810101010100807002060E0E02000E5
:1045F000000020E060200000077FF88000807C033E
:10460000000000000000071F1C070000000020E061
:10461000E02000E0E0200020E0200007FFF8E01F9D
:10462000FFFCE01F00000000031F0300011F030048
:104630000000002060E0A0000020E06020000000FA
:1046400000038F7CF8C6010000000010181E130044
:1046500001171F1810002060E0E02000000020E09B
:104660006020000001073EF8E0180700000000008D
:104670000010101F1F10100000000080602020207C
:1046800020A0E0E0200000000000C0F03E0F03008A
:10469000000000101C1F171010101018060000005A
:1046A000000000FC0404040404000000000000FFFB
:1046B00000000000000000000000007F404040407B
:1046C0004000000010E000000000000000000000BA
:1046D0000000031C608000000000000000000000DB
:1046E00000030C70800000000404040404FC0000BB
:1046F000000000000000000000FF000000000000BB
:1047000040404040407F0000000000000010080CC6
:10471000040C081000000000000000000000000071
:104720000000000000000000000000000000000089
:104730000000000000000000000000000000000079
:104740000000000000008080808080808080808069
:104750008080000000040408080000000000000041
:104760000000000000000000000000000000000049
:104770000000000000000000000000000000000039
:104780000000000098D844642424FCF80000000FC6
:104790001F18101010081F1F10180020E0F0000054
:1047A0000000000000000000FFFF180804040CF8DF
:1047B000F00000001F0F18101010180F0300000069
:1047C0000000000000000000000000E0F8180404F1
:1047D000043C3800000000030F0C101010100806F5
:1047E00000000000000000000020E0F0000000E0F9
:1047F000F81C04040408FFFF000000030F18101049
:1048000010081F0F0800000000000000000000005A
:1048100000000000E0F8484444444C787000000078
:10482000030F0C181010100804000000000080C0D6
:10483000602020E0C00000040404FFFF040404041E
:104840000000000010101F1F1010100000000000DA
:1048500000000000000000000000000070F88C0460
:10486000048CF874040C007076CF8D8D8D89C87817
:1048700070000020E0F000000000000000000000D8
:10488000FFFF08040404FCF8000000101F1F1000C4
:1048900000101F1F100000000000006060000000FA
:1048A00000000000040404FCFC0000000000000004
:1048B0001010101F1F10101000000000000000005A
:1048C00000606000000000000000040404FCFC0024
:1048D00000000000C0C08080C07F3F0000000020BA
:1048E000E0F000000000000000000000FFFF80C0BA
:1048F000F41C0404000000101F1F1100031F1C10F3
:1049000010000000202020E0F00000000000000067
:10491000000000FFFF000000000000001010101F4A
:104920001F10101000000000000000000000000038
:10493000000004FCFC0804FCFC0804FCFC00101F44
:104940001F10001F1F10001F1F100000000000009C
:104950000000000000000004FCFC08080404FCF84F
:10496000000000101F1F100000101F1F100000008B
:104970000000000000000000000000E0F0180C043F
:10498000040C18F0E00000030F0C101010100C0FB6
:104990000300000000000000000000000000000410
:1049A000FCFC080404040CF8F0000080FFFF889071
:1049B00010101C0F030000000000000000000000A9
:1049C000000000E0F81C04040408F8FC00000003E8
:1049D0000F1810109088FFFF8000000000000000FA
:1049E000000000000000040404FCFC100804040C97
:1049F0000C001010101F1F1010100000000000000D
:104A00000000000000000000000000003078CCC46E
:104A10008484840C1C0000001E1810101011190F43
:104A200006000000000000C00000000000000004BC
:104A30000404FFFF040404000000000000000F1F36
:104A40001010100C0000000000000000000000002A
:104A500000000004FCFE00000004FCFE000000005A
:104A60000F1F181010081F0F0800000000000000A2
:104A700000000000000000040C3CFCC40000C43C2A
:104A80000C0400000000010F1E0E010000000000D9
:104A900000000000000000000000043CFCC400E432
:104AA0007CFC84807C040000071F070000071F07B0
:104AB00000000000000000000000000000000004F2
:104AC000041C7CE4C0341C0404000010101C1601FB
:104AD000131F1C1810000000000000000000000060
:104AE000000000040C3CFCC400C43C0404000000B2
:104AF000C080C1370E01000000000000000000006F
:104B000000000000000000001C0404C4F47C1C042D
:104B100000000000101C1F17111010180E000000DC
:104B20000000000000F80C0400000000000000106D
:104B300028EF00000000000000000000003F60407F
:104B40000000000000000000FF0000000000000066
:104B500000000000FF000000000000000000000056
:104B6000FF00000000000000040CF800000000003E
:104B7000000000000000EF2810000000000000000E
:104B800040603F0000000000000000180602020420
:104B90000810202030080000000000000000000085
:104BA0000000000000000000000000000000000005
:104BB000000000000000000000000000FC000000F9
:104BC000000002000000000C020C020000000000C7
:104BD000000090D0BCD0BC9000030003000018245B
:104BE000FE448C000302070201001824D8B04C8058
:104BF000000300010201C038E438E00001020201B4
:104C00000202080600000000000000000000000092
:104C100000F80402000000010204000204F8000091
:104C20000004020100009060F860900000000100A4
:104C300000002020FC2020000000010000000000F7
:104C400000000000080600000000202020202000B6
:104C50000000000000000000000000000002000052
:104C600000000080601C0200040300000000F80443
:104C70000404F8000102020201000008FC00000028
:104C800000020302000018844424180003020202F8
:104C9000020008042424D80001020202010040B0EE
:104CA00088FC80000000000302003C242424C4008F
:104CB000010202020100F824242CC00001020202B9
:104CC00001000C04E41C0400000003000000D824D0
:104CD0002424D80001020202010038444444F800B0
:104CE00000030202010000001000000000000200AA
:104CF000000000002000000000000600000000206E
:104D000050880402000000000102909090909000F2
:104D10000000000000000002048850200002010092
:104D200000001804C4241800000002000000F80469
:104D3000E494F80001020202020000E09CF080000E
:104D400002030000030204FC2424D8000203020230
:104D50000100F80404040C0001020202010004FC3A
:104D60000404F80002030202010004FC24740C0095
:104D700002030202030004FC24740C00020302007C
:104D80000000F0080444CC4000010202010004FCD1
:104D90002020FC040203000003020404FC040400BD
:104DA000020203020200000404FC040406040403DB
:104DB000000004FC24D00C0402030200030204FCE3
:104DC00004000000020302020203FC3CC03CFC00A1
:104DD00003000300030004FC30C4FC0402030200CF
:104DE0000300F8040404F80001020202010004FCBC
:104DF00024241800020302000000F8848404F80050
:104E000001020207050004FC24649800020302006A
:104E10000302182424448C000302020201000C0443
:104E2000FC040C0000020302000004FC0000FC046F
:104E3000000102020100047C80E01C040000030069
:104E400000001CE03CE01C00000300030000049C88
:104E5000609C0400020300030200041CE01C040028
:104E60000002030200000C84641C0400020302021E
:104E700003000000FE020200000007040400000E10
:104E800030C00000000000010200000202FE00002D
:104E900000040407000000040204000000000000F9
:104EA00000000000000000000808080808080000D2
:104EB000020000000000000000000040A0A0C000B0
:104EC00000010202030204FC2020C00000030202D1
:104ED000010000C02020600000010202020000C0AA
:104EE0002024FC0000010202030200C0A0A0C000B8
:104EF0000001020202000020F82424040002030240
:104F000002000040A0A0602000070A0A0A0404FC76
:104F10002020C0000203020003020020E400000081
:104F2000000203020000000020E400000808080757
:104F3000000004FC80E020200203020003020404BD
:104F4000FC000000020203020200E020E020C0009A
:104F500003000300030020E02020C0000203020041
:104F6000030200C02020C00000010202010020E076
:104F70002020C000080F0A02010000C02020E0002D
:104F80000001020A0F0820E0402020000203020076
:104F900000000060A0A02000000202020300002028
:104FA000F820000000000102020020E00020E000E4
:104FB00000010202030220E02080602000000301C3
:104FC00000006080E08060000003000300002060BB
:104FD0008060200002030003020020E020806020A7
:104FE0000808070100000020A06020000002030262
:104FF0000200000020DE02000000000704000000A4
:1050000000FF00000000000F00000002DE20000092
:105010000004070000000201020404020000000076
:105020000000000000000000000000000000000080
:105030000000000000F80000000000000033300015
:10504000000000100C06100C06000000000000001C
:10505000000040C07840C0784000043F04043F0492
:105060000400007088FC08300000001820FF211E9A
:105070000000F008F000E018000000211C031E21D1
:105080001E0000F00888700000001E21232419274C
:10509000211010160E0000000000000000000000AB
:1050A0000000000000E018040200000000071820C3
:1050B000400000020418E000000000402018070033
:1050C0000000404080F0804040000202010F0102D9
:1050D0000200000000F0000000000101011F0101BA
:1050E0000100000000000000000080B0700000001F
:1050F00000000000000000000000000101010101AB
:10510000010100000000000000000030300000003D
:105110000000000000008060180400601806010014
:10512000000000E010080810E000000F1020201020
:105130000F00001010F8000000000020203F202089
:105140000000007008080888700000302824222120
:1051500030000030088888483000001820202011D6
:105160000E000000C02010F8000000070424243FB7
:10517000240000F808888808080000192120201160
:105180000E0000E0108888180000000F1120201188
:105190000E0000380808C83808000000003F000072
:1051A00000000070880808887000001C222121225D
:1051B0001C0000E010080810E0000000312222115D
:1051C0000F00000000C0C0000000000000303000F0
:1051D000000000000080000000000000806000006F
:1051E00000000000804020100800000102040810A8
:1051F00020004040404040404000040404040404B7
:105200000400000810204080000000201008040264
:105210000100007048080808F00000000030360166
:105220000000C030C828E810E00007182724231425
:105230000B000000C038E0000000203C23020227E1
:10524000382008F8888888700000203F202020112E
:105250000E00C03008080808380007182020201069
:10526000080008F808080810E000203F202020105F
:105270000F0008F88888E8081000203F202023202D
:10528000180008F88888E8081000203F2000030074
:105290000000C03008080838000007182020221E2F
:1052A000020008F808000008F808203F2101012149
:1052B0003F20000808F8080800000020203F2020B8
:1052C000000000000808F8080800C08080807F0007
:1052D000000008F888C028180800203F2001263860
:1052E000200008F8080000000000203F20202020B7
:1052F000300008F8F800F8F80800203F003F003FB1
:10530000200008F830C00008F808203F20000718E7
:105310003F00E01008080810E0000F1020202010C7
:105320000F0008F808080808F000203F21010101DB
:105330000000E01008080810E0000F18242438507E
:105340004F0008F8888888887000203F2000030CF0
:1053500030200070880808083800003820212122F9
:105360001C00180808F8080818000000203F20005A
:10537000000008F808000008F808001F202020207E
:105380001F000878880000C83808000007380E01A0
:105390000000F80800F80008F800033C0700073C8C
:1053A0000300081868808068180820302C03032C3C
:1053B00030200838C800C83808000000203F20000E
:1053C000000010080808C8380800203826212020CE
:1053D0001800000000FE020202000000007F4040B2
:1053E0004000000C30C00000000000000001063842
:1053F000C00000020202FE000000004040407F00AA
:10540000000000000402020204000000000000008E
:10541000000000000000000000008080808080808C
:105420008080000202040000000000000000000074
:1054300000000000808080800000001924222222C9
:105440003F2008F8008080000000003F112020115C
:105450000E000000008080800000000E112020203F
:105460001100000000808088F800000E112020103C
:105470003F200000808080800000001F2222222226
:105480001300008080F0888888180020203F2020AA
:1054900000000000808080808000006B94949493D2
:1054A000600008F8008080800000203F210000207C
:1054B0003F2000809898000000000020203F20201E
:1054C0000000000000809898000000C08080807F6D
:1054D000000008F8000080808000203F24022D306A
:1054E0002000000808F8000000000020203F2020D5
:1054F00000008080808080808000203F20003F204E
:10550000003F8080008080800000203F210000203C
:105510003F200000808080800000001F202020208D
:105520001F00808000808000000080FFA1202011EB
:105530000E000000008080808000000E112020A05E
:10554000FF80808080008080800020203F2120001C
:105550000100000080808080800000332424242407
:105560001900008080E0808000000000001F2020E3
:1055700000008080000000808000001F202020109C
:105580003F20808080000080808000010E3008066F
:10559000010080800080008080800F300C030C3080
:1055A0000F0000808000808080000020312E0E31AE
:1055B0002000808080000080808080818E701806AE
:1055C000010000808080808080000021302C22211A
:1055D000300000000000807C020200000000003F5C
:1055E000404000000000FF00000000000000FF003D
:1055F00000000002027C800000000040403F0000EC
:105600000000000601010202040400000000000086
:10561000000002030405060708090A0B0C0D0E0F13
:10562000101048656C6C6F20576F726C64210D0010
:1056300041542B43574D4F44453D310D0A004154D1
:105640000D0A00352E20436F6E6E6563746564200D
:10565000746F20544350207365727665723A2073DC
:1056600065727665722049503A2025732C20736547
:10567000727665725F706F72743A2025730D0A003E
:10568000496E697469616C697A652066696E6973CF
:10569000686564200D00342E205749464920636F09
:1056A0006E6E6563746564200D0041626C652074E4
:1056B0006F2073656E642064617461206E6F772063
:1056C0000D00362E2053657420746F20756E766140
:1056D000726E6973686564207472616E736D69734C
:1056E00073696F6E206D6F64650D0038303830005F
:1056F0003139322E3136382E35302E323331006A80
:1057000061636B646173686162693132330039359A
:1057100035004F4B00000000385700080000002003
:10572000100000003835000848570008100000201D
:105730007007000048350008000000000024F40055
:08574000010000001000000050
:04000005080000E906
:00000001FF
